:1003990053746F7077617463683A0020203A2020A3
:1003A9003A0050617573652100202020202020002B
:1003F400010C3A010E3B010D17C185C182C103C135
:0B04040004C180C181010A00010B004F
:10034C0020B00E30000BC2A120B00BD203C2008033
:10035C000530B002D20020B10B30010820B10AD216
:09036C0004C2012230B102D201E9
:010375002265
:10000E001204521204107BFF7A0379997D017F014D
:10001E001203767BFF7A0379A47D017F02120376A9
:10002E0012034C30031CB205C2037BFF2005067A77
:10003E000379AB80047A0379B27D0B7F01120376CC
:10004E00800830B00530B202D2A1E50DFB7A007502
:10005E0015027D017F021203D7E50EFB7A0075159E
:10006E00027D047F021203D7E50CFB7A00751502A0
:10007E007D077F021203D7300414C20420B116C2CA
:10008E00A0E4F50FF510F50CF50EF50D800730B167
:10009E0004C204D2A020B205E4F5A080832005801E
:0700AE00D2A2D2A302002E32
:03000B000200B53B
:0400B500C0E0C0D017
:1000B900758A66758CFC0510E5107002050F050937
:1000C900E50970020508C3E51094E8E50F940340BB
:1000D9003D750F00751000300534C2A2750A500530
:1000E9000CE50C943C4027750C00C2A2C2A3050E76
:1000F900E50E943C4018750E00C2A4C2A3C2A2C268
:10010900A1C2A0050DE50D94184003750D00E50A7F
:10011900D394004009D50A06D2A4D2A3D2A2C3E53A
:1001290009944CE50894044009750800750900759F
:100139000B14E50BD394004007C2A4D50B02D2A43B
:05014900D0D0D0E0322F
:10043D00EF4E6010007D027CC7DCFEDDFCEF1F700F
:04044D00EF1E80EC32
:010451002288
:06046600C2A58F80D2A7A1
:08046C007F027EEFDEFEDFFCE3
:010474002265
:0A047500C2A6120466C2A702046CBE
:1003B900CFCDCFCECCCE12018D7C007D0A12018D1E
:0403C900ED2430FFF0
:0A03CD00D2A6120466C2A702046C57
:10042700AE07BE0104ED148006BE0209ED243F4469
:0604370080FF1204752293
:100452007F381204757F0C1204757F061204757FB3
:04046200010204751A
:0A047F00AC03120427AF040203CD02
:060376008B118A128913AD
:10037C00120427E4FDAB11AA12A9138D8275830018
:0C038C0012014EFF60061203CD0D80E947
:010398002242
:0C0319007F0AEA24FFFDE434FFFC7E00B4
:080325008E168F178C188D193C
:10032D007F017E00E4FBEBC39519E5186480F8743A
:0E033D008098500AAC16AD1712017B0B80E8B9
:01034B00228F
:0403D7008A138B14E6
:1003DB00120427AA15EAD39400400D120319AC138B
:0803EB00AD141203B91A80EDF4
:0103F30022E7
:10026E00120427C3EA64809480400B7F2B1203CDC7
:10027E008A268B27800E7F2D1203CDC3E49BF52794
:10028E00E49AF526AA25EAD39400400D120319AC80
:09029E0026AD271203B91A80ED08
:0102A7002234
:0402A8008A1C8B1D04
:1002AC00120427AA1EEAD3940040297F1012031BC4
:1002BC00AC1CAD1DCFCDCFCECCCE12018DEF540FDB
:1002CC00FEC3940AEE5004243080022437FF12033C
:0402DC00CD1A80D1E6
:0102E00022FB
:0402E1008A2A8B2BAF
:1002E500120427AA2CEAD394004028EA24FFFDE44F
:1002F50034FFFC7F027E00120325AC2AAD2BCFCD47
:10030500CFCECCCE12018DEF54012430FF1203CD98
:030315001A80D279
:0103180022C2
:100410005389F0438901758A66758CFCC28DD28C34
:07042000D2A9D2AFC2B9223C
:030000000201E218
:0C01E200787FE4F6D8FD75812C0202291C
:10014E00BB010CE58229F582E5833AF583E0225066
:10015E0006E92582F8E622BBFE06E92582F8E222B0
:0D016E00E58229F582E5833AF583E49322CA
:10017B00EF8DF0A4A8F0CF8CF0A428CE8DF0A42E98
:02018B00FE2252
:10018D00BC000BBE0029EF8DF084FFADF022E4CC56
:10019D00F875F008EF2FFFEE33FEEC33FCEE9DEC1F
:1001AD00984005FCEE9DFE0FD5F0E9E4CEFD22ED65
:1001BD00F8F5F0EE8420D21CFEADF075F008EF2FAF
:1001CD00FFED33FD4007985006D5F0F222C398FDA0
:0501DD000FD5F0EA223D
:1001EE0002000EE493A3F8E493A34003F68001F219
:1001FE0008DFF48029E493A3F85407240CC8C33312
:10020E00C4540F4420C8834004F456800146F6DFE0
:10021E00E4800B01020408102040809003F4E47E79
:10022E00019360BCA3FF543F30E509541FFEE493D5
:10023E00A360010ECF54C025E060A840B8E493A39C
:10024E00FAE493A3F8E493A3C8C582C8CAC583CAC7
:10025E00F0A3C8C582C8CAC583CADFE9DEE780BE7F
:01040F0000EC
:00000001FF
